:020000040000fa
:080000000002040000000000f2
:020000040000fa
:100400006f422100007f24000001880000000000ee
:100410000c0007006092210001002000110007007d
:10042000000020000000e000020032000000020096
:1004300000000000461a0200000000000040da0040
:100440000000fe004440a900000020000000e00081
:100450000300320000002000a00188004440a800f2
:100460000000060091018800800078000000eb0089
:1004700015003700e280400032a0b4009101ba00bc
:10048000e280400032a0b4009102ba00e280400055
:1004900032a0b4000002eb00472bde00f507b200eb
:1004a000602ce10004003a000059eb008301e900f0
:1004b000fdff3e00040037006128e100010032002a
:1004c0000082eb00040007001101ba000200e00006
:1004d000e8ff3a00000006003159ba008301e90044
:1004e0000c0032002159ba008301e90008003200f3
:1004f0000400e00003003a00e280400032a0b400b3
:10050000f5ff370011d9ba008301e900faff3a007c
:100510008100e800e180400032a0b4000000060045
:1005200080007800010037000000e8001004e000bf
:10053000fdff3a0001005000000006008001eb00c2
:100540000200370061f079008301e800828f5100da
:08055000fcff3a000000060068
:020000040000fa
:0200000401f009
:04000c00fbff0000f6
:020000040000fa
:0200000401f009
:04001000b9ff000034
:020000040000fa
:0200000401f009
:04001400e9ff000000
:020000040000fa
:100008005a1a00005a1a00005a1a00005a1a000018
:100018005a1a00005a1a00005a1a00005a1a000008
:100028005a1a00005a1a00005a1a00005a1a0000f8
:100038005a1a00005a1a00005a1a00005a1a0000e8
:100048005a1a00005a1a00005a1a00000216000034
:10005800221600005a1a00005a1a00005a1a000004
:100068005a1a00005a1a00005a1a00005a1a0000b8
:10007800d61800005a1a00005a1a00005a1a00002e
:100088005a1a00005a1a00005a1a00005a1a000098
:10009800441700005a1a00004e1600005a1a0000b1
:1000a8005a1a00005a1a00005a1a00005a1a000078
:1000b8005a1a00005a1a00005a1a00005a1a000068
:1000c8005a1a00005a1a00005a1a00005a1a000058
:1000d8005a1a00005a1a00005a1a00005a1a000048
:1000e8005a1a00005a1a00005a1a00005a1a000038
:1000f8005a1a00005a1a00005a1a00005a1a000028
:100108005a1a00005a1a00005a1a00005a1a000017
:100118005a1a00005a1a00005a1a00005a1a000007
:100128005a1a00005a1a00005a1a00005a1a0000f7
:100138005a1a00005a1a00005a1a00005a1a0000e7
:100148005a1a00005a1a00005a1a00005a1a0000d7
:100158005a1a00005a1a00005a1a00005a1a0000c7
:100168005a1a00005a1a00005a1a00005a1a0000b7
:100178005a1a00005a1a00005a1a00005a1a0000a7
:100188005a1a00005a1a00005a1a00005a1a000097
:100198005a1a00005a1a00005a1a00005a1a000087
:1001a8005a1a00005a1a00005a1a00005a1a000077
:1001b8005a1a00005a1a00005a1a00005a1a000067
:1001c8005a1a00005a1a00005a1a00005a1a000057
:1001d8005a1a00005a1a00005a1a00005a1a000047
:1001e8005a1a00005a1a00005a1a00005a1a000037
:0801f8005a1a00005a1a000017
:020000040000fa
:100208005a1a00005a1a00005a1a00005a1a000016
:100218005a1a00005a1a00005a1a00005a1a000006
:100228005a1a00005a1a00005a1a00005a1a0000f6
:100238005a1a00005a1a00005a1a00005a1a0000e6
:100248005a1a00005a1a00005a1a00000216000032
:10025800221600005a1a00005a1a00005a1a000002
:100268005a1a00005a1a00005a1a00005a1a0000b6
:10027800d61800005a1a00005a1a00005a1a00002c
:100288005a1a00005a1a00005a1a00005a1a000096
:10029800441700005a1a00004e1600005a1a0000af
:1002a8005a1a00005a1a00005a1a00005a1a000076
:1002b8005a1a00005a1a00005a1a00005a1a000066
:1002c8005a1a00005a1a00005a1a00005a1a000056
:1002d8005a1a00005a1a00005a1a00005a1a000046
:1002e8005a1a00005a1a00005a1a00005a1a000036
:1002f8005a1a00005a1a00005a1a00005a1a000026
:100308005a1a00005a1a00005a1a00005a1a000015
:100318005a1a00005a1a00005a1a00005a1a000005
:100328005a1a00005a1a00005a1a00005a1a0000f5
:100338005a1a00005a1a00005a1a00005a1a0000e5
:100348005a1a00005a1a00005a1a00005a1a0000d5
:100358005a1a00005a1a00005a1a00005a1a0000c5
:100368005a1a00005a1a00005a1a00005a1a0000b5
:100378005a1a00005a1a00005a1a00005a1a0000a5
:100388005a1a00005a1a00005a1a00005a1a000095
:100398005a1a00005a1a00005a1a00005a1a000085
:1003a8005a1a00005a1a00005a1a00005a1a000075
:1003b8005a1a00005a1a00005a1a00005a1a000065
:1003c8005a1a00005a1a00005a1a00005a1a000055
:1003d8005a1a00005a1a00005a1a00005a1a000045
:1003e8005a1a00005a1a00005a1a00005a1a000035
:0803f8005a1a00005a1a000015
:020000040000fa
:100558000600fa00000f78001e0078001001be00a7
:10056800120798002307980080022000010020004d
:100578001e019000ae019000800f5100818f59003c
:100588002700320080022000010020001e01900098
:10059800ae019000800f5100818f59000d003e0080
:1005a8001e009000ae009000e00f5000e08f580051
:1005b8001700320020002000010020001e019000da
:1005c800ae019000800f5100818f59001200320057
:1005d8001900370020032000010020001e019000b0
:1005e800ae019000800f5100818f59001000320039
:1005f80050052000010020001e019000ae0190006f
:10060800800f5100818f5900070032000a0037001f
:100618001e0078005f0007001e0078000501070033
:100628001e007800830107001e007800df01070024
:100638001e007800670207000080fa00000006002c
:100648000800fa00000178006000b800008fbe00c2
:100658003e02be002e03be000499be000691be00f5
:10066800020078000080fa00000006001400fa007a
:10067800881f780000047800014f980052079800fe
:100688006c004700eeff07006e009000fe0090002f
:100698000e0990009e099000009fbe000297be00c0
:1006a8000e48900040479800de00900031079800ff
:1006b8003e00be002e01be00009cbe000294be009b
:1006c800080078004f0478000080fa000000060057
:1006d8001800fa00881f7800000478006a004700b4
:1006e8000108780012009800230098007000470065
:1006f800d3ff07000e0890009e0890002e09900076
:10070800be0990001007980021079800320798004a
:100718004307980040002000000f78000e80e80092
:10072800640040006a014700000278009e017800da
:100738001200780092009000220190004704070000
:10074800000f78000e80e800660040006a0147004c
:10075800000278009e017800120078009200900054
:1007680022019000bd020700000f78001e009000d3
:10077800ae0090003e019000ce019000009cbe00ab
:100788000294be00080078004f0478000080fa0048
:10079800000006001000fa00889fbe00600798005d
:1007a8000f0478000f0078008004780040002000d3
:1007b800100798006e009000640040004304070092
:1007c800800078001e00900001004000100798008b
:1007d8006e00900066004000e40207008000780088
:1007e8001e00900001004000100798001e009000b5
:1007f8000000e8000000e8000000d1000000400010
:100808008f0078007107980080874700fe009000ed
:100818000100e8000000d1000000400070079800c7
:100828007e00900020079800ae0090006600470008
:10083800010878001e009000cf80de0066014700a6
:1008480010019800210198000000eb00000f7800cb
:100858006e00900066014700000278009e01780053
:100868001200780092009000220190004e030700c9
:10087800000f78006e009000640040006601470099
:10088800000278009e017800120078009200900023
:1008980022019000ff030700000f78006e0090000f
:1008a8006600400066014700000278009e0178005b
:1008b8001200780092009000220190008302070045
:1008c800000f78006601470012007800920090003f
:1008d80022019000f1060700890778008807780050
:1008e8004f04be000080fa00000006000600fa006f
:1008f800000178002000200001002000008fbe00c9
:100908001e00be000089be00ae00900021019800c4
:10091800020078000080fa00000006000e00fa00cd
:10092800881f780000047800614798007247980093
:1009380068004700edff0700680047001001be008f
:10094800028fbe00a0019000230798006e4090001f
:1009580040479800fe409000514798001e01be0095
:10096800028cbe00ae0190002304980008007800b5
:100978004f0478000080fa00000006001400fa0016
:10098800889fbe008004780068004700010878004e
:1009980012009800230098000e84e8006e004700bb
:1009a800d2ff07006e0047001001be00028cbe0097
:1009b800a00190002304980040002000000f780058
:1009c8000e80e800640040006801470000027800db
:1009d8009e01780012007800920090002201900099
:1009e800c0030700000f78000e80e8006500400093
:1009f80068014700000278009e0178001200780024
:100a080092009000220190006e030700000f78000a
:100a18000e80e8001001be00828cbe00a00190008c
:100a2800a3049800090078004f04be000080fa0073
:100a3800000006001000fa00889fbe0060079800ba
:100a48000f0478000f007800800478004000200030
:100a5800100798006e00900064004000bd03070076
:100a6800800078001e0090000100400010079800e8
:100a78006e00900065004000730307008000780056
:100a88001e00900001004000100798001e00900012
:100a98000000e8000000e8000000d100000040006d
:100aa8008f0078007107980080874700fe0090004b
:100ab8000100e8000000d100000040007007980025
:100ac8007e00900020079800ae0090006600470066
:100ad800010878001e009000cf80de006601470004
:100ae80010019800210198000000eb00000f780029
:100af8006e00900066014700000278009e017800b1
:100b0800120078009200900022019000a6020700cf
:100b1800000f78006e0090006400400066014700f6
:100b2800000278009e017800120078009200900080
:100b38002201900079030700000f78006e009000f2
:100b48006500400066014700000278009e017800b9
:100b580012007800920090002201900029030700fb
:100b6800000f78006601470012007800920090009c
:100b78002201900049060700890778008807780055
:100b88004f04be000080fa00000006000400fa00ce
:100b9800000178008002200001002000008fbe00c4
:100ba8001e00be000089be00020078000080fa0026
:100bb800000006000800fa00881f7800000478008a
:100bc80064004700f1ff07002e009000be0090006f
:100bd800008fbe001e00be00008cbe00080078001a
:100be8004f0478000080fa00000006000e00fa00aa
:100bf800881f780000047800640047000108780026
:100c080012009800230098006a004700dfff0700e1
:100c18005e009000ee009000008fbe001e00be0037
:100c2800008cbe00080078004f0478000080fa00ad
:100c3800000006001000fa00889fbe0060079800b8
:100c48000f0478000f00780080047800400020002e
:100c5800100798001e0090000000e8000000e8005f
:100c68000000d100000040008f0078007107980054
:100c780080874700fe0090000100e8000000d100d6
:100c880000004000700798007e0090002007980040
:100c9800ae00900066004700010878001e00900032
:100ca800cf80de00660147001001980021019800fe
:100cb8000000eb00000f78006e009000660147000e
:100cc800000278009e0178001200780092009000df
:100cd8002201900034020700000f780066014700e7
:100ce800120078009200900022019000eb050700a6
:100cf80089077800880778004f04be000080fa0052
:100d0800000006000400fa000001780050052000e9
:100d180001002000008fbe001e00be000089be003a
:100d2800020078000080fa00000006000800fa00bf
:100d3800881f78000004780064004700f1ff07006e
:100d48002e009000be009000008fbe001e00be0066
:100d5800008cbe00080078004f0478000080fa007c
:100d6800000006000e00fa00881f780000047800d2
:100d780064004700010878001200980023009800da
:100d88006a004700dfff07005e009000ee00900059
:100d9800008fbe001e00be00008cbe000800780058
:100da8004f0478000080fa00000006001000fa00e6
:100db800889fbe00600798000f0478000f00780035
:100dc8008004780040002000100798001e00900062
:100dd8000000e8000000e8000000d100000040002a
:100de8008f0078007107980080874700fe00900008
:100df8000100e8000000d1000000400070079800e2
:100e08007e00900020079800ae0090006600470022
:100e1800010878001e009000cf80de0066014700c0
:100e280010019800210198000000eb00000f7800e5
:100e38006e00900066014700000278009e0178006d
:100e4800120078009200900022019000d60107005d
:100e5800000f7800660147001200780092009000a9
:100e6800220190008d05070089077800880778001f
:100e78004f04be000080fa00000006000800fa00d7
:100e8800000178002003200001002000008fbe0030
:100e98003e02be002e03be000499be000691be00ad
:100ea800020078000080fa00000006001400fa0032
:100eb800881f7800000478004107980052079800be
:100ec8006c004700edff07006e009000fe009000e8
:100ed8000e0990009e099000009fbe000297be0078
:100ee8004e00900020079800de009000310798001f
:100ef8003e00be002e01be00009cbe000294be0053
:100f0800080078004f0478000080fa00000006000e
:100f18001800fa00881f7800000478006a0047006b
:100f2800010878001200980023009800700047001c
:100f3800d2ff07000e0890009e0890002e0990002e
:100f4800be09900010079800210798003207980002
:100f58004307980040002000000f78000e80e8004a
:100f6800640040006a014700000278009e01780092
:100f7800120078009200900022019000a001070062
:100f8800000f78000e80e800660040006a01470004
:100f9800000278009e01780012007800920090000c
:100fa8002201900096010700000f78001e009000b3
:100fb800ae0090003e019000ce019000009cbe0063
:100fc8000294be00080078004f0478000080fa0000
:100fd800000006001000fa00889fbe006007980015
:100fe8000f0478000f00780080047800400020008b
:100ff800100798006e00900064004000a1010700ef
:10100800800078001e009000010040001007980042
:101018006e009000660040009a010700800078008a
:101028001e00900001004000100798001e0090006c
:101038000000e8000000e8000000d10000004000c7
:101048008f0078007107980080874700fe009000a5
:101058000100e8000000d10000004000700798007f
:101068007e00900020079800ae00900066004700c0
:10107800010878001e009000cf80de00660147005e
:1010880010019800210198000000eb00000f780083
:101098006e00900066014700000278009e0178000b
:1010a8001200780092009000220190003e01070093
:1010b800000f78006e009000640040006601470051
:1010c800000278009e0178001200780092009000db
:1010d800220190005a010700000f78006e0090006e
:1010e8006600400066014700000278009e01780013
:1010f8001200780092009000220190005001070031
:10110800000f7800660147001200780092009000f6
:1011180022019000e1040700890778008807780019
:101128004f04be000080fa00000006000a00fa0022
:10113800000f7800110798002207980033079800dd
:10114800440798009e0078003e0090000080400010
:101158001000be004e0190000089be003e009000c5
:10116800640040000080fa00000006000a00fa004f
:10117800000f78001107980022079800330798009d
:10118800440798009e0078003e00900000804000d0
:10119800000178004e0090001000be000089be00db
:1011a8003e009000640040000080fa000000060045
:1011b8000200fa00000f7800400020000080fa00ca
:1011c800000006000a00fa00000f780011079800d6
:1011d8002207980033079800440798009e0078007b
:1011e8003e00900000804000900078004e00900083
:1011f800010878003e0090000080e8000080fa00b6
:10120800000006000a00fa00000f78001107980095
:101218002207980033079800440798009e0078003a
:101228003e00900000804000800078004e00900052
:1012380010007800800878003e0090000080e800e8
:101248000080fa00000006000200fa00000f780093
:10125800200020000080fa00000006000e00fa00be
:10126800e4024700800a780091029800a2029800e0
:101278005307980064079800640147000e0278003d
:10128800de01900012007800920090002201900088
:10129800b5000700500798006400470090007800e8
:1012a8005e00900000804000900078006e00900082
:1012b800010878001e00be00800078005e009000e3
:1012c800008040000080fa00000006000e00fa00ce
:1012d800e4024700800a780091029800a202980070
:1012e80053079800640798006e009000100078007b
:1012f80089fc070001002000008fbe006401470040
:101308000e027800de019000120078009200900032
:1013180022019000a4000700500798001e00be009c
:101328000001780064004700900078005e0090009b
:1013380000804000800078006e0090001000780067
:1013480080017800010078008000780003007800b0
:1013580078fc07001e00be00800078005e00900048
:10136800008040000080fa00000006000600fa0035
:10137800200798002e0090001000780066fc0700f7
:1013880001002000008fbe000e00780097000700c3
:10139800000178001e00be00000041000080fa0035
:1013a800000006000a00fa00000f780011079800f4
:1013b8002207980033079800440798009e00780099
:1013c8003e009000008040001000be004e019000da
:1013d8000089be003e009000640040000080fa00d2
:1013e800000006000a00fa00000f780011079800b4
:1013f8002207980033079800440798009e00780059
:101408003e00900000804000000178004e009000ef
:101418001000be000089be003e009000640040003d
:101428000080fa00000006000200fa00000f7800b1
:10143800400020000080fa00000006000a00fa00c0
:10144800000f7800110798002207980033079800ca
:10145800440798009e0078003e00900000804000fd
:101468001000be004e0190000089be003e009000b2
:10147800640040000080fa00000006000a00fa003c
:10148800000f78001107980022079800330798008a
:10149800440798009e0078003e00900000804000bd
:1014a800000178004e0090001000be000089be00c8
:1014b8003e009000640040000080fa000000060032
:1014c8000200fa00000f7800400020000080fa00b7
:1014d800000006000a00fa00000f780011079800c3
:1014e8002207980033079800440798009e00780068
:1014f8003e00900000804000904078004e00900030
:10150800014878003e0090000000e8000080fa00e2
:10151800000006000a00fa00000f78001107980082
:101528002207980033079800440798009e00780027
:101538003e009000808040004e00900010407800ef
:10154800804878003e0090000000e8000080fa0023
:10155800000006000200fa00000f780010002000ca
:101568000080fa00000006000a00fa00000f780068
:10157800110798002207980033079800440798003d
:101588009e0078003e009000008040001000be00e1
:101598004e0190000089be003e00900064004000ab
:1015a8000080fa00000006000a00fa00000f780028
:1015b80011079800220798003307980044079800fd
:1015c8009e0078003e0090000080400000017800f6
:1015d8004e0090001000be000089be003e00900042
:1015e800640040000080fa00000006000200fa00d3
:1015f800000f7800400020000080fa00000006007c
:101608000a00fa00000f78001107980022079800d6
:1016180033079800440798009e0078003e00900029
:1016280000804000900078004e009000010878008b
:101638003e0090000080e8000080fa0000000600ec
:101648000a00fa00000f7800110798002207980096
:1016580033079800440798009e0078003e009000e9
:1016680000804000800078004e0090001000780054
:10167800800878003e0090000080e8000080fa00b2
:10168800000006000200fa00000f78002000200089
:101698000080fa00000006000a00fa00000f780037
:1016a800110798002207980033079800440798000c
:1016b8009e0078003e009000008040009040780036
:1016c8004e009000014878003e0090000000e800bd
:1016d8000080fa00000006000a00fa00000f7800f7
:1016e80011079800220798003307980044079800cc
:1016f8009e0078003e009000008040008000780046
:101708004e00900010407800804878003e0090001d
:101718000000e8000080fa00000006000200fa005d
:10172800000f7800100020000080fa00000006007a
:101738000a00fa00000f78001107980022079800a5
:1017480033079800440798009e0078003e009000f8
:1017580000804000904078004e00900001487800da
:101768003e0090000000e8000080fa00000006003b
:101778000a00fa00000f7800110798002207980065
:1017880033079800440798009e0078003e009000b8
:10179800808040004e00900010407800804878001b
:1017a8003e0090000000e8000080fa0000000600fb
:1017b8000200fa00000f7800100020000080fa00f4
:1017c800000006000a00fa00000f780011079800d0
:1017d8002207980033079800440798009e00780075
:1017e8003e00900000804000904078004e0090003d
:1017f800014878003e0090000000e8000080fa00f0
:10180800000006000a00fa00000f7800110798008f
:101818002207980033079800440798009e00780034
:101828003e00900000804000800078004e0090004c
:1018380010407800804878003e0090000000e800e2
:101848000080fa00000006000200fa00000f78008d
:10185800100020000080fa00000006000a00fa00cc
:10186800000f7800110798002207980033079800a6
:10187800440798004e029000be0190001e007800b8
:101888009e0090002e019000ceff07000080fa0015
:10189800000006000a00fa00000f780011079800ff
:1018a8002207980033079800440798004e029000da
:1018b800be0190001e0078009e0090002e0190004e
:1018c800d0ff07000080fa00000006000200fa00be
:1018d800000f78001e007800dbff07000080fa0088
:1018e800000006000a00fa00000f780011079800af
:1018f8002207980033079800440798004e0290008a
:10190800be0190001e0078009e0090002e019000fd
:10191800acff07000080fa00000006000a00fa0089
:10192800000f7800110798002207980033079800e5
:10193800440798004e029000be0190001e007800f7
:101948009e0090002e019000aeff07000080fa0074
:10195800000006000200fa00000f78001e00780060
:10196800b9ff07000080fa00000006000200fa0034
:10197800000f78001e007800f5fa07000080fa00d2
:10198800000006001400fa00004f98005107980064
:101998006c0047005e0190008e48900033fb070002
:1019a8006e009000fe0090000e0990009e099000c5
:1019b800009fbe000297be000e00780075fb07006e
:1019c8000080fa00000006000e00fa006047980048
:1019d80071479800680047007e419000ee409000f3
:1019e800cefb0700680047001001be00028fbe0052
:1019f800a0019000230798000e0078000dfc070056
:101a08000080fa00000006000800fa0064004700a1
:101a180068fc07002e009000be009000008fbe00fa
:101a28000e00780083fc07000080fa000000060022
:101a38000800fa0064004700bcfc07002e00900074
:101a4800be009000008fbe000e007800d7fc070093
:101a58000080fa00000006001400fa004007980011
:101a6800510798006c0047005e019000ce0090007e
:101a78000efd07006e009000fe0090000e09900019
:101a88009e099000009fbe000297be000e007800dd
:101a980050fd07000080fa00000006004a00fa0026
:101aa800881f7800230220008e8141008009780079
:101ab80091019800a2019800220220000e01410025
:101ac8000e0278008001eb0012007800920090006e
:101ad80022019000a4fe07001e00be0030279800d7
:101ae8004127980080022000010020003e2190003c
:101af800ce219000800f5100818f59004a0032009a
:101b080080022000010020003e219000ce2190009c
:101b1800800f5100818f59000d003e003e2090003b
:101b2800ce209000e00f5000e08f580017003200e0
:101b380020002000010020003e219000ce219000ce
:101b4800800f5100818f590024003200690037004e
:101b580020032000010020003e219000ce219000ab
:101b6800800f5100818f59004f003200500520002e
:101b7800010020003e219000ce219000800f5100ee
:101b8800818f5900380032005a0037008402200043
:101b98000e024200200220000e0040009000780053
:101ba80010019000a001900004007800c8fa070016
:101bb8004e109000de1090006e119000fe11900003
:101bc80020079800310798004207980053079800ab
:101bd80064004700c6050700460037006c0447004c
:101be800040320000e024200200220000e004000e4
:101bf8009000780010019000a00190000400780087
:101c08005efb0700000320000e0040001001be002c
:101c1800028cbe00a0019000230498006c004700cd
:101c2800a205070033003700640320000e024200bb
:101c3800200220000e004000900078001001900063
:101c4800a001900004007800e8fb07003e1890000f
:101c5800ce189000100f9800210f980072004700ce
:101c68009b05070023003700a40320000e02420052
:101c7800200220000e004000900078001001900023
:101c8800a00190000400780036fc07005e18900060
:101c9800ee189000300f9800410f9800760047002a
:101ca8009005070013003700e40320000e024200ed
:101cb800200220000e0040009000780010019000e3
:101cc800a00190000400780091fc07007e189000a5
:101cd8008e2090001e219000ae219000500f980099
:101ce800610f9800720f9800031798007a00470058
:101cf800830507004f0478000080fa000000060002
:101d08000200fa00000f78001e00780000a1880089
:101d18000080fa00000006000400fa0011e1a900a2
:101d28001061a9000111200091407800f0ccb300a7
:101d380000c0600010e1b7001021a9000000eb000e
:101d48003008880040102000600888000000eb0080
:101d5800a01688000000eb009016880060002000a4
:101d6800700d880060002000400d88006000200091
:101d7800100d880060002000e00c88006000200042
:101d8800b00c88000000eb00600d88000000eb003c
:101d9800300d88000000eb00000d88000000eb000b
:101da800d00c88000000eb00a00c88000000eb00bd
:101db800a00c88000000eb00500d88000000eb002c
:101dc800200d88000000eb00f00c88000000eb00fc
:101dd800c00c88000000eb00900c880011e1a800fe
:101de800d01680000000e000030032001000200040
:101df80010079800020037000000eb001007980059
:101e08001e009000d0168800c01680000000e00078
:101e18000300320010002000000f78000200370095
:101e28000000eb00000f78001e007800c016880044
:101e3800500107000040eb0015f4b7000040eb002c
:101e480017f4b7000040eb0016f4b7000040eb00b1
:101e580019f4b7000040eb0018f4b7000000eb00dd
:101e6800d0a088008040eb00f0c1b3001701070044
:101e78000080fa00000006000a00fa00881f7800b7
:101e88004a01070040079800d1a080004e0090004a
:101e98004a01070030079800be009000b064220095
:101ea800808f5000060136003e009000c264220078
:101eb800110009000280d800504798005e40900049
:101ec8008080fb00c06422000088b9008000780090
:101ed800d0a0800000804000d0a08800514121009f
:101ee8009140780010d4bf0080cf50002d00320000
:101ef800014121009140780015d4bf0080cf5000e7
:101f08000800340051412100914078005e40900063
:101f180080c0400010d4bf00150407004047980057
:101f28000700370051412100914078005e40900041
:101f380080c0500010d4bf001c0407004047980020
:101f480015d4bf0028040700004478004e409000d4
:101f580025040700804f54000500320015d4bf0047
:101f68000004e000020032000040eb004047980007
:101f78004e4090000004e00002003500dae2a800bc
:101f880001003700dae2a9004e4090002204070061
:101f98000000fb0000004000500d88004e409000fb
:101fa80015f4b700614121009140780011d4bf00b9
:101fb80080cf50002d00320011412100914078005f
:101fc80016d4bf0080cf50000800340061412100c2
:101fd800914078005e40900080c0400011d4bf005e
:101fe800e3030700304798000700370061412100ec
:101ff800914078005e40900080c0500011d4bf002e
:10200800ea0307003047980016d4bf00f60307001c
:10201800004478003e409000f3030700804f5400ce
:102028000500320016d4bf000004e00002003200b0
:102038000040eb00304798003e4090000004e0006c
:1020480002003500da62a80001003700da62a90050
:102058003e409000f00307000000fb000000400035
:10206800f00c88003e40900016f4b7007141210042
:102078009140780012d4bf0080cf50002d0032006c
:10208800214121009140780017d4bf0080cf500033
:102098000800340071412100914078005e409000b2
:1020a80080c0400012d4bf00b10307002047980049
:1020b8000700370071412100914078005e40900090
:1020c80080c0500012d4bf00b80307002047980012
:1020d80017d4bf00c4030700004478002e409000c6
:1020e800c1030700804f54000500320017d4bf0019
:1020f8000004e000020032000040eb002047980096
:102108002e4090000004e00002003500da82a800aa
:1021180001003700da82a9002e409000be030700b4
:102128000000fb0000004000200d88002e409000b9
:1021380017f4b700814121009140780013d4bf0003
:1021480080cf50002d0032003141210091407800ad
:1021580018d4bf0080cf500008003400814121000e
:10216800914078005e40900080c0400013d4bf00ca
:102178007f030700104798000700370081412100be
:10218800914078005e40900080c0500013d4bf009a
:10219800860307001047980018d4bf009203070071
:1021a800004478001e4090008f030700804f5400c1
:1021b8000500320018d4bf000004e000020032001d
:1021c8000040eb00104798001e4090000004e0001b
:1021d80002003500daa2a80001003700daa2a9003f
:1021e8001e4090008c0307000000fb000000400028
:1021f800900c88001e40900018f4b700914121000f
:102208009140780014d4bf0080cf50002c003200d9
:10221800414121009140780019d4bf0080cf50007f
:102228000800340091412100914078005e40900000
:1022380080c0400014d4bf004d030700004f780051
:102248000700370091412100914078005e409000de
:1022580080c0500014d4bf0054030700004f78001a
:1022680019d4bf0060030700004478001e407800be
:102278005d030700804f54000500320019d4bf00e9
:102288000004e000020032000040eb00004f78003c
:102298001e04e00002003500dac2a8000100370081
:1022a800dac2a9001e4078005b0307000000fb00ab
:1022b80000004000c00c88001e40780019f4b700e8
:1022c8004f0478000080fa00000006000200fa00bf
:1022d800004f78001147980000a180000000e0003e
:1022e800220032001e00fb00610060000004e000d4
:1022f800020032001e40900010f4b7001e00fb00e0
:102308000000d100610060000004e000020032001b
:102318001e40900012f4b7001e00fb004200de00d1
:10232800610060000004e000020032001e409000de
:1023380011f4b7001e00fb004300de0061006000de
:102348000004e000020032001e40900014f4b700c0
:102358001e00fb004400de00610060000004e00095
:10236800020032001e40900013f4b7000080fa000b
:10237800000006000000fa0013e1a9002111200066
:1023880091407800f0ccb30000c060000044a00089
:1023980012e1b7001221a9000000eb0050088800e4
:1023a80013e1a8000080fa00000006000000fa000f
:1023b800500880000080fa00000006000600fa00bd
:1023c800000f7800110798001e0090009e0f100063
:1023d800040039001e0090001e001000200798001d
:1023e800040037001e0090001e0010000000e900e5
:1023f800200798002e0090000080fa0000000600d8
:102408000c00fa00889fbe0020079800310798004a
:1024180042079800530798002e009000be009000d5
:102428000f0007000004be004e009000de00900080
:102438000b000700001f440001974c001e00be005f
:102448000700070000017800020078000080ea0019
:102458008180ea004f04be000080fa0000000600f8
:102468000800fa0020079800310798000e0178004c
:102478002e009000be0090000089be001e0078006b
:102488006101b8001e009000010020000200400019
:10249800838048000080fa00000006001000fa005f
:1024a800ea0147008009780091019800a20198008c
:1024b800d0012c00d1ea2d00008fbe006a00470031
:1024c800a0009000100090002007980031079800a5
:1024d8002e019000be0190001e00be00c8ff07003c
:1024e80040079800a10020000e007800ab0107000b
:1024f8006a004700a000900010009000800078005b
:102508006a00470010007800a40107000080fa0064
:10251800000006002200fa00889fbe008a1f78008b
:10252800200f98000f00780000179800b0003700bf
:102538002e089000fa0007002e08900026010700d8
:102548000000e000ae003a002e08900030010700bd
:10255800fd4f5000f6ff3a002e089000400107009a
:10256800ea0f5000a6003400110020002e08900049
:1025780041010700804078000041eb00725f98003d
:1025880000ccb30080cf50000200320013c0b3006b
:10259800735f9800210020002e0890003601070084
:1025a800804078000040eb00605f9800d0cab3001c
:1025b80080cf50000200320011c0b300615f980064
:1025c8007e599000ee599000034071000080fb0096
:1025d800600f9800310020002e08900026010700a7
:1025e800804078000000eb00500f9800e0cdb30069
:1025f80080cf50000200320011002000510f9800d7
:102608006e099000de099000030071000000e000f0
:10261800030032002e089000c10007007400370044
:10262800910020002e089000130107000080fb0095
:102638004804dd00810020002e0890000e010700ec
:102648000080fb0000004400500798007100200043
:102658002e089000080107008044780061002000df
:102668002e08900004010700004578005100200062
:102678002e08900000010700004478004100200067
:102688002e089000fc000700894178000a41780074
:10269800884078005d0307003007980041079800dc
:1026a8003e019000ce019000d0012c00d1ea2d000f
:1026b80053ff0700800078005e009000808f500074
:1026c800030032002e0890009500070048003700ec
:1026d8002e089000e20007006101b9003e0090005a
:1026e800ce0090006a004000e0804800800f510052
:1026f800818f5900420039000f007800300f980090
:102708000040eb0040479800050037002e08900075
:10271800830007004e4090000040e80040479800c2
:102728004e409000e94f5000f8ff34003e00900002
:10273800ce0090000000e8000000e8000000d10092
:10274800000040008f007800410f98008087470004
:102758004e0990000200e8000000d100000040008f
:10276800400f9800ce099000630798006000b800f9
:10277800008fbe000b0037001e04be002e0890001c
:1027880067000700804078006e0090000800400055
:102798000148780010002000010020001e0f4000b2
:1027a8005e9748003e009000ce009000be0f1000db
:1027b800ae8f1800f0ff3900ee0090006e00470061
:1027c800010878006e0047003e019000ce0190009d
:1027d80012009800230098006e014700120078004c
:1027e8009200900022019000acfc0700be0f900000
:1027f8002e089000780007000000e00052ff320029
:102808008e1790004f0578004f04be000080fa0034
:10281800000006000400fa00000f78002147980025
:102828001e007800b00090001e0078001000900094
:10283800808f500026003d001e007800a000900008
:102848001e00780030009000808040001e00780054
:1028580010009000808f50000e0035001e00780098
:10286800100178001e007800b00090001e0078006b
:1028780020009000808040001e007800100090002a
:102888000080500000004100ae40900001487800f0
:102898000a0037001e007800100178001e0078003a
:1028a800b00090001e0078002000900000804000da
:1028b80000004100ae409000014878001e007800fa
:1028c800300090008000e8001e0078003100980079
:1028d8000080fa00000006000600fa00000f7800e9
:1028e80011079800220798001e007800ae0090009b
:1028f800110098001e0078009e00900001087800e2
:102908009e0078000000eb00b00098009e00780060
:102918000000eb00a00098000080fa00000006000c
:102928000600fa00100798001e0090003000900082
:102938000000e00003003a000000eb0020079800c8
:10294800220037001e009000900078001e009000c2
:102958002000900000804000104f78001e0090007a
:10296800900078001e0090002000900080804000b9
:1029780000c2b300804878001e009000300090002c
:102988008000e9001e009000310098001e009000b1
:10299800200090008000e8001e00900021009800b0
:1029a8001e009000a00090001e00900010009000f3
:1029b800808f5000030035009e0090000000eb005f
:1029c800a00098001e80fb00200798002e009000b1
:1029d8000080fa00000006000400fa00000f7800ea
:1029e8001e007800300090000000e00003003a006c
:1029f8001000200010079800020037000000eb00cc
:102a0800100798001e0090000080fa0000000600e1
:102a18000400fa00000f78001e00780030009000d3
:102a28000000e000090034001e00780090007800e3
:102a38001e007800200090000080400010407800c0
:102a48000080fb0010079800020037000000eb0030
:102a5800100798001e0090000080fa000000060091
:102a68000200fa00000f78001e0078003000900085
:102a78000080fa00000006000600fa00000f780047
:102a8800110798001e007800b00090001e0090000a
:102a9800808f500003003c000000eb0020079800e6
:102aa800200037001e007800a00090001e00900053
:102ab800808040001e00780010009000808f500039
:102ac8000e0035001e007800100178001e00780006
:102ad800a00090001e009000808040001e0078003a
:102ae8001000900000805000000041001040780065
:102af8000080fb00200798000a0037001e007800bd
:102b0800100178001e007800a00090001e009000c0
:102b18000080400000004100104078000080fb0069
:102b2800200798002e0090000080fa0000000600a0
:102b38000400fa00100798000000eb00000f78006e
:102b4800010037001e0fe8001e00900030009000c2
:102b58009e0f5000fbff3c000080fa0000000600ba
:102b68000400fa00100798000000eb00000f78003e
:102b78000000eb00000f7800010037001e0fe8008e
:102b88001e009000100090000000e8009e0f50000a
:102b9800faff3c000080fa00000006000600fa0078
:102ba80010079800210798000000eb00000f78003c
:102bb800080037001e007800800078001e00900092
:102bc80000804000904078008000210011ff07003d
:102bd8001e0fe8002e0090009e0f1000f5ff350034
:102be80023c2bf00614060000004e0000100320021
:102bf8008580a8000080fa00000006003600f80072
:102c0800809fbe00829fbe00849fbe00869fbe003c
:102c18000000fa008560a90030118000c301070098
:102c28000080fa004f03be004f02be004f01be00f5
:102c38004f00be003600f900004006003600f800dc
:102c4800809fbe00829fbe00849fbe00869fbe00fc
:102c58000000fa008580a900800021005eff0700bf
:102c68000000e00004003a00800021002cff07006b
:102c78000080fb00201188000080fa004f03be008e
:102c88004f02be004f01be004f00be003600f900e3
:102c9800004006003600f800809fbe00829fbe00fc
:102ca800849fbe00869fbe000000fa0087c0a9006e
:102cb800b0118000a10107000080fa004f03be0098
:102cc8004f02be004f01be004f00be003600f900a3
:102cd800004006000000fa00024020000101210027
:102ce80080002100fcfe070021e2a90021a2a90022
:102cf8002182a9002162a9001122200091407800b8
:102d0800c0cfb30000c0600021e2b70020e2a900f4
:102d180020c2a90020a2a9002082a9002062a9003f
:102d2800012220009140780090cfb30000c06000dd
:102d380020e2b7002002a90000042000401188000a
:102d480023e2a90023a2a90023c2a9002362a900a3
:102d58002342a9002322a9002302a90022c2bf00fe
:102d6800f043b20022e2b70022a2a9002282a90001
:102d78002262a9002242a9002222a9002202a90057
:102d88008580a9009580a9008560a9009560a900a3
:102d980021e2a8002342a8008580a9009580a80008
:102da8008560a9009560a8000080fa000000060070
:102db8000000fa0031e2a90031a2a9003182a9007d
:102dc8003162a9001123200091407800c0cfb300e0
:102dd80000c0600031e2b70030e2a90030c2a900ab
:102de80030a2a9003082a9003062a9000123200086
:102df8009140780090cfb30000c0600030e2b70087
:102e08003002a90000042000c011880033e2a900a4
:102e180033c2a90033a2a9003362a9003342a90032
:102e28003322a9003302a90032c2bf00f043b20026
:102e380032e2b70032a2a9003282a9003262a900a8
:102e48003242a9003222a9003202a90087e0a90073
:102e580097e0a90087c0a90097c0a90031e2a8009f
:102e680031e2a8003342a90087e0a90097e0a80052
:102e780087c0a90097c0a8000080fa0000000600db
:102e880000a0fe003600f800849fbe00869fbe00aa
:102e98000000fa00350107008780a900e8c2bf00da
:102ea8000080fb004600de000004a20061406000d4
:102eb8006140600061406000614060004601dd00e3
:102ec800812e200091407800f0cbb30000c0600054
:102ed80002407000e8e2b7000080fa004f03be002d
:102ee8004f02be003600f9000080fe0000400600d8
:102ef8000000fa000000eb00f00888000000eb007a
:102f0800000988000000eb00c00888000000eb0002
:102f1800a008880000012000e008880000092d00b2
:102f2800d0088800210b20009140780080cfb300a2
:102f380000c060006040b300b2e0b7008780a9001d
:102f48009780a8001e61a800e11120009140780038
:102f5800f0ccb30000c0600001c2b30001407000b3
:102f68001ee1b7001fe1a8000080fa00000006007b
:102f78000400fa00004f7800114798001e409000a6
:102f88009e4f100003003d001e00fb001007980034
:102f9800030037001e4090000000fb001007980057
:102fa8001e0090000080fa00000006000400fa00ed
:102fb800004f7800114798001e4090009e4f100067
:102fc800030034001e00fb001007980003003700c0
:102fd8001e4090000000fb00100798001e009000a3
:102fe8000080fa00000006000400fa00004f780094
:102ff8001e04e00003003d000080eb00100798006d
:103008000200370010002000100798001e009000f2
:103018000080fa00000006000400fa00004f780063
:103028001e04e000030035001e00fb001007980096
:10303800030037001e40ea000000fb00100798005c
:103048001e0090000080fa00000006000000fa0050
:1030580020178000f1c32f000100600020178800ae
:103068000080fa00000006000200fa00000f780055
:103078001e0078000080ea008180ea00c600dd00ba
:10308800003c2000008f60001e0078004017880078
:103098000080fa00000006000000fa00e0a08000ae
:1030a800e80f500003003200e0a08000e10f50005c
:1030b80003003a00f0a080000000ea00f0a08800b9
:1030c800f0a08000e10f500004003a00e0a080006a
:1030d80000004000e0a0880003003700e0a0800066
:1030e8000080d100e0a08800e0a08000deff07009b
:1030f8000080fa00000006000200fa0084000700c1
:1031080014000700d1ff070029ff070002fb070092
:1031180010c0b300004f780006003700deff07003c
:10312800007c220091002000c9000700db00070096
:103138001e4fe80090c0b3009e4f1000f7ff360006
:103148000000eb00c8ff070069ff07000080fa00d5
:10315800000006000000fa00e0012000303a880074
:1031680044c7bf00f043b20044e7b70041742000f1
:103178009140780000ceb30000c0600044e7b7007b
:103188000000eb00403a880040a7a90042c7bf00f2
:103198000042b2000004e000fcff32000080fa00a8
:1031a8000000060000a0fe003600f800849fbe0064
:1031b800869fbe000200fa000000eb00000f7800b6
:1031c8000800370000a62e0001002000a00007001c
:1031d800d5c2bf00614060000004e0000a00320070
:1031e8001e0fe800400020009e0f1000f5ff34007d
:1031f80021c3b30040c1b30034fc0700e902a900b1
:103208001dfb0700feff37000080fa004f03be00d9
:103218004f02be003600f9000080fe0000400600a4
:103228000000fa00d702a900d302a80081e0a80094
:103238008220a9008680a9009680a8000080fa0054
:04324800000006007c
:020000040000fa
:10324c001c14000004000000020000000200010039
:10325c00000000002014000002000000020000002a
:10326c0001000000101400000c0000000000000021
:10327c000008000008080000000000000810000012
:10328c0008040000000000002214000002000000ee
:10329c0002000000000000002414000002000000e6
:0832ac0000000000000000001a
:020000040000fa
:1032b4000200fa00000f78001e007800d040900051
:1032c4001e0078004040900001fc07000080fa00d6
:1032d400000006000200fa00000f78003600070024
:1032e4000080fa00000006000200fa00000f7800d7
:1032f400ffff37000200fa00000f78000080fa0098
:10330400000006000200fa00000f78000080fa00b6
:10331400000006000000fa000280200081802000e6
:10332400008020006dfd07000080fa000000060008
:103334000200fa00004f78000080fa000000060046
:103344000200fa00004f78009e40780000802000c0
:1033540031fd07000080fa00000006000000fa00ba
:10336400008020006cfc07000080fa0000000600ca
:103374000000fa0020a180000000e00007003a00ed
:103384008040eb00f0c1b300d1fb07000000eb006c
:103394005cfa0700e922a800050037000000eb00f2
:1033a40020a188001000200056fa0700e922a90095
:1033b4000080fa00000006000000fa00100020005f
:1033c40020a188000080fa00000006000800fa002e
:1033d4004047980051479800624798007347980007
:1033e4004e409000004f78005e40900010479800d7
:1033f4006e409000204798007e409000304798002f
:103404000e0078001000be000080fa0000000600e4
:103414000800fa0040479800514798006247980016
:10342400734798004e409000004f78005e40900033
:10343400104798006e409000204798007e4090000e
:10344400304798000e0078001000be000080fa009b
:10345400000006000400fa00008fbe0004003700dc
:103464000080eb008080eb001e0f40005e97480058
:103474001e00be00e00f5000e08f5800f8ff3c0033
:103484000080fa00000006000000fa001bff07009d
:103494007afa0700b1ff070001000700fcff3700bc
:1034a4000000fa000060fe000080fa000000060040
:020000040000fa
:0434b4000000fe0016
:00000001FF
